{
  "_format": "hh-sol-artifact-1",
  "contractName": "OnChainNFT",
  "sourceName": "contracts/OnChainNFT.sol",
  "contractAddress": "0xd04A00132154527B87DaaF2154e4565C17Cb7914",
  "abi": [
    {
      "inputs": [],
      "stateMutability": "nonpayable",
      "type": "constructor"
    },
    {
      "anonymous": false,
      "inputs": [
        {
          "indexed": true,
          "internalType": "address",
          "name": "owner",
          "type": "address"
        },
        {
          "indexed": true,
          "internalType": "address",
          "name": "approved",
          "type": "address"
        },
        {
          "indexed": true,
          "internalType": "uint256",
          "name": "tokenId",
          "type": "uint256"
        }
      ],
      "name": "Approval",
      "type": "event"
    },
    {
      "anonymous": false,
      "inputs": [
        {
          "indexed": true,
          "internalType": "address",
          "name": "owner",
          "type": "address"
        },
        {
          "indexed": true,
          "internalType": "address",
          "name": "operator",
          "type": "address"
        },
        {
          "indexed": false,
          "internalType": "bool",
          "name": "approved",
          "type": "bool"
        }
      ],
      "name": "ApprovalForAll",
      "type": "event"
    },
    {
      "anonymous": false,
      "inputs": [
        {
          "indexed": true,
          "internalType": "address",
          "name": "previousOwner",
          "type": "address"
        },
        {
          "indexed": true,
          "internalType": "address",
          "name": "newOwner",
          "type": "address"
        }
      ],
      "name": "OwnershipTransferred",
      "type": "event"
    },
    {
      "anonymous": false,
      "inputs": [
        {
          "indexed": true,
          "internalType": "address",
          "name": "from",
          "type": "address"
        },
        {
          "indexed": true,
          "internalType": "address",
          "name": "to",
          "type": "address"
        },
        {
          "indexed": true,
          "internalType": "uint256",
          "name": "tokenId",
          "type": "uint256"
        }
      ],
      "name": "Transfer",
      "type": "event"
    },
    {
      "inputs": [
        {
          "internalType": "address",
          "name": "to",
          "type": "address"
        },
        {
          "internalType": "uint256",
          "name": "tokenId",
          "type": "uint256"
        }
      ],
      "name": "approve",
      "outputs": [],
      "stateMutability": "nonpayable",
      "type": "function"
    },
    {
      "inputs": [
        {
          "internalType": "address",
          "name": "owner",
          "type": "address"
        }
      ],
      "name": "balanceOf",
      "outputs": [
        {
          "internalType": "uint256",
          "name": "",
          "type": "uint256"
        }
      ],
      "stateMutability": "view",
      "type": "function"
    },
    {
      "inputs": [],
      "name": "buildImage",
      "outputs": [
        {
          "internalType": "string",
          "name": "",
          "type": "string"
        }
      ],
      "stateMutability": "pure",
      "type": "function"
    },
    {
      "inputs": [],
      "name": "cost",
      "outputs": [
        {
          "internalType": "uint256",
          "name": "",
          "type": "uint256"
        }
      ],
      "stateMutability": "view",
      "type": "function"
    },
    {
      "inputs": [
        {
          "internalType": "uint256",
          "name": "tokenId",
          "type": "uint256"
        }
      ],
      "name": "getApproved",
      "outputs": [
        {
          "internalType": "address",
          "name": "",
          "type": "address"
        }
      ],
      "stateMutability": "view",
      "type": "function"
    },
    {
      "inputs": [
        {
          "internalType": "address",
          "name": "owner",
          "type": "address"
        },
        {
          "internalType": "address",
          "name": "operator",
          "type": "address"
        }
      ],
      "name": "isApprovedForAll",
      "outputs": [
        {
          "internalType": "bool",
          "name": "",
          "type": "bool"
        }
      ],
      "stateMutability": "view",
      "type": "function"
    },
    {
      "inputs": [],
      "name": "maxMintAmount",
      "outputs": [
        {
          "internalType": "uint256",
          "name": "",
          "type": "uint256"
        }
      ],
      "stateMutability": "view",
      "type": "function"
    },
    {
      "inputs": [],
      "name": "maxSupply",
      "outputs": [
        {
          "internalType": "uint256",
          "name": "",
          "type": "uint256"
        }
      ],
      "stateMutability": "view",
      "type": "function"
    },
    {
      "inputs": [
        {
          "internalType": "uint256",
          "name": "_mintAmount",
          "type": "uint256"
        }
      ],
      "name": "mint",
      "outputs": [],
      "stateMutability": "payable",
      "type": "function"
    },
    {
      "inputs": [],
      "name": "name",
      "outputs": [
        {
          "internalType": "string",
          "name": "",
          "type": "string"
        }
      ],
      "stateMutability": "view",
      "type": "function"
    },
    {
      "inputs": [],
      "name": "owner",
      "outputs": [
        {
          "internalType": "address",
          "name": "",
          "type": "address"
        }
      ],
      "stateMutability": "view",
      "type": "function"
    },
    {
      "inputs": [
        {
          "internalType": "uint256",
          "name": "tokenId",
          "type": "uint256"
        }
      ],
      "name": "ownerOf",
      "outputs": [
        {
          "internalType": "address",
          "name": "",
          "type": "address"
        }
      ],
      "stateMutability": "view",
      "type": "function"
    },
    {
      "inputs": [],
      "name": "renounceOwnership",
      "outputs": [],
      "stateMutability": "nonpayable",
      "type": "function"
    },
    {
      "inputs": [
        {
          "internalType": "address",
          "name": "from",
          "type": "address"
        },
        {
          "internalType": "address",
          "name": "to",
          "type": "address"
        },
        {
          "internalType": "uint256",
          "name": "tokenId",
          "type": "uint256"
        }
      ],
      "name": "safeTransferFrom",
      "outputs": [],
      "stateMutability": "nonpayable",
      "type": "function"
    },
    {
      "inputs": [
        {
          "internalType": "address",
          "name": "from",
          "type": "address"
        },
        {
          "internalType": "address",
          "name": "to",
          "type": "address"
        },
        {
          "internalType": "uint256",
          "name": "tokenId",
          "type": "uint256"
        },
        {
          "internalType": "bytes",
          "name": "data",
          "type": "bytes"
        }
      ],
      "name": "safeTransferFrom",
      "outputs": [],
      "stateMutability": "nonpayable",
      "type": "function"
    },
    {
      "inputs": [
        {
          "internalType": "address",
          "name": "operator",
          "type": "address"
        },
        {
          "internalType": "bool",
          "name": "approved",
          "type": "bool"
        }
      ],
      "name": "setApprovalForAll",
      "outputs": [],
      "stateMutability": "nonpayable",
      "type": "function"
    },
    {
      "inputs": [
        {
          "internalType": "uint256",
          "name": "_newCost",
          "type": "uint256"
        }
      ],
      "name": "setCost",
      "outputs": [],
      "stateMutability": "nonpayable",
      "type": "function"
    },
    {
      "inputs": [
        {
          "internalType": "uint256",
          "name": "_newmaxMintAmount",
          "type": "uint256"
        }
      ],
      "name": "setmaxMintAmount",
      "outputs": [],
      "stateMutability": "nonpayable",
      "type": "function"
    },
    {
      "inputs": [
        {
          "internalType": "bytes4",
          "name": "interfaceId",
          "type": "bytes4"
        }
      ],
      "name": "supportsInterface",
      "outputs": [
        {
          "internalType": "bool",
          "name": "",
          "type": "bool"
        }
      ],
      "stateMutability": "view",
      "type": "function"
    },
    {
      "inputs": [],
      "name": "symbol",
      "outputs": [
        {
          "internalType": "string",
          "name": "",
          "type": "string"
        }
      ],
      "stateMutability": "view",
      "type": "function"
    },
    {
      "inputs": [
        {
          "internalType": "uint256",
          "name": "index",
          "type": "uint256"
        }
      ],
      "name": "tokenByIndex",
      "outputs": [
        {
          "internalType": "uint256",
          "name": "",
          "type": "uint256"
        }
      ],
      "stateMutability": "view",
      "type": "function"
    },
    {
      "inputs": [
        {
          "internalType": "address",
          "name": "owner",
          "type": "address"
        },
        {
          "internalType": "uint256",
          "name": "index",
          "type": "uint256"
        }
      ],
      "name": "tokenOfOwnerByIndex",
      "outputs": [
        {
          "internalType": "uint256",
          "name": "",
          "type": "uint256"
        }
      ],
      "stateMutability": "view",
      "type": "function"
    },
    {
      "inputs": [
        {
          "internalType": "uint256",
          "name": "tokenId",
          "type": "uint256"
        }
      ],
      "name": "tokenURI",
      "outputs": [
        {
          "internalType": "string",
          "name": "",
          "type": "string"
        }
      ],
      "stateMutability": "view",
      "type": "function"
    },
    {
      "inputs": [],
      "name": "totalSupply",
      "outputs": [
        {
          "internalType": "uint256",
          "name": "",
          "type": "uint256"
        }
      ],
      "stateMutability": "view",
      "type": "function"
    },
    {
      "inputs": [
        {
          "internalType": "address",
          "name": "from",
          "type": "address"
        },
        {
          "internalType": "address",
          "name": "to",
          "type": "address"
        },
        {
          "internalType": "uint256",
          "name": "tokenId",
          "type": "uint256"
        }
      ],
      "name": "transferFrom",
      "outputs": [],
      "stateMutability": "nonpayable",
      "type": "function"
    },
    {
      "inputs": [
        {
          "internalType": "address",
          "name": "newOwner",
          "type": "address"
        }
      ],
      "name": "transferOwnership",
      "outputs": [],
      "stateMutability": "nonpayable",
      "type": "function"
    },
    {
      "inputs": [
        {
          "internalType": "address",
          "name": "_owner",
          "type": "address"
        }
      ],
      "name": "walletOfOwner",
      "outputs": [
        {
          "internalType": "uint256[]",
          "name": "",
          "type": "uint256[]"
        }
      ],
      "stateMutability": "view",
      "type": "function"
    },
    {
      "inputs": [],
      "name": "withdraw",
      "outputs": [],
      "stateMutability": "payable",
      "type": "function"
    }
  ],
  "bytecode": "0x60806040526000600b55600a600c556001600d553480156200002057600080fd5b506040518060400160405280601581526020017f576562334c61627320666f756e646572207061737300000000000000000000008152506040518060400160405280600481526020017f574c46500000000000000000000000000000000000000000000000000000000081525081600090816200009e919062000421565b508060019081620000b0919062000421565b505050620000d3620000c7620000d960201b60201c565b620000e160201b60201c565b62000508565b600033905090565b6000600a60009054906101000a900473ffffffffffffffffffffffffffffffffffffffff16905081600a60006101000a81548173ffffffffffffffffffffffffffffffffffffffff021916908373ffffffffffffffffffffffffffffffffffffffff1602179055508173ffffffffffffffffffffffffffffffffffffffff168173ffffffffffffffffffffffffffffffffffffffff167f8be0079c531659141344cd1fd0a4f28419497f9722a3daafe3b4186f6b6457e060405160405180910390a35050565b600081519050919050565b7f4e487b7100000000000000000000000000000000000000000000000000000000600052604160045260246000fd5b7f4e487b7100000000000000000000000000000000000000000000000000000000600052602260045260246000fd5b600060028204905060018216806200022957607f821691505b6020821081036200023f576200023e620001e1565b5b50919050565b60008190508160005260206000209050919050565b60006020601f8301049050919050565b600082821b905092915050565b600060088302620002a97fffffffffffffffffffffffffffffffffffffffffffffffffffffffffffffffff826200026a565b620002b586836200026a565b95508019841693508086168417925050509392505050565b6000819050919050565b6000819050919050565b600062000302620002fc620002f684620002cd565b620002d7565b620002cd565b9050919050565b6000819050919050565b6200031e83620002e1565b620003366200032d8262000309565b84845462000277565b825550505050565b600090565b6200034d6200033e565b6200035a81848462000313565b505050565b5b8181101562000382576200037660008262000343565b60018101905062000360565b5050565b601f821115620003d1576200039b8162000245565b620003a6846200025a565b81016020851015620003b6578190505b620003ce620003c5856200025a565b8301826200035f565b50505b505050565b600082821c905092915050565b6000620003f660001984600802620003d6565b1980831691505092915050565b6000620004118383620003e3565b9150826002028217905092915050565b6200042c82620001a7565b67ffffffffffffffff811115620004485762000447620001b2565b5b62000454825462000210565b6200046182828562000386565b600060209050601f83116001811462000499576000841562000484578287015190505b62000490858262000403565b86555062000500565b601f198416620004a98662000245565b60005b82811015620004d357848901518255600182019150602085019450602081019050620004ac565b86831015620004f35784890151620004ef601f891682620003e3565b8355505b6001600288020188555050505b505050505050565b61431980620005186000396000f3fe6080604052600436106101b75760003560e01c80634f6ccce7116100ec578063a0712d681161008a578063c87b56dd11610064578063c87b56dd146105f0578063d5abeb011461062d578063e985e9c514610658578063f2fde38b14610695576101b7565b8063a0712d6814610582578063a22cb4651461059e578063b88d4fde146105c7576101b7565b8063715018a6116100c6578063715018a6146104ec5780637f00c7a6146105035780638da5cb5b1461052c57806395d89b4114610557576101b7565b80634f6ccce7146104355780636352211e1461047257806370a08231146104af576101b7565b806323b872dd11610159578063422d847111610133578063422d84711461037b57806342842e0e146103a6578063438b6300146103cf57806344a0d68a1461040c576101b7565b806323b872dd1461030b5780632f745c59146103345780633ccfd60b14610371576101b7565b8063095ea7b311610195578063095ea7b31461026157806313faede61461028a57806318160ddd146102b5578063239c70ae146102e0576101b7565b806301ffc9a7146101bc57806306fdde03146101f9578063081812fc14610224575b600080fd5b3480156101c857600080fd5b506101e360048036038101906101de91906124c6565b6106be565b6040516101f0919061250e565b60405180910390f35b34801561020557600080fd5b5061020e610738565b60405161021b91906125b9565b60405180910390f35b34801561023057600080fd5b5061024b60048036038101906102469190612611565b6107ca565b604051610258919061267f565b60405180910390f35b34801561026d57600080fd5b50610288600480360381019061028391906126c6565b610810565b005b34801561029657600080fd5b5061029f610927565b6040516102ac9190612715565b60405180910390f35b3480156102c157600080fd5b506102ca61092d565b6040516102d79190612715565b60405180910390f35b3480156102ec57600080fd5b506102f561093a565b6040516103029190612715565b60405180910390f35b34801561031757600080fd5b50610332600480360381019061032d9190612730565b610940565b005b34801561034057600080fd5b5061035b600480360381019061035691906126c6565b6109a0565b6040516103689190612715565b60405180910390f35b610379610a45565b005b34801561038757600080fd5b50610390610acd565b60405161039d91906125b9565b60405180910390f35b3480156103b257600080fd5b506103cd60048036038101906103c89190612730565b610afa565b005b3480156103db57600080fd5b506103f660048036038101906103f19190612783565b610b1a565b604051610403919061286e565b60405180910390f35b34801561041857600080fd5b50610433600480360381019061042e9190612611565b610bc8565b005b34801561044157600080fd5b5061045c60048036038101906104579190612611565b610bda565b6040516104699190612715565b60405180910390f35b34801561047e57600080fd5b5061049960048036038101906104949190612611565b610c4b565b6040516104a6919061267f565b60405180910390f35b3480156104bb57600080fd5b506104d660048036038101906104d19190612783565b610cfc565b6040516104e39190612715565b60405180910390f35b3480156104f857600080fd5b50610501610db3565b005b34801561050f57600080fd5b5061052a60048036038101906105259190612611565b610dc7565b005b34801561053857600080fd5b50610541610dd9565b60405161054e919061267f565b60405180910390f35b34801561056357600080fd5b5061056c610e03565b60405161057991906125b9565b60405180910390f35b61059c60048036038101906105979190612611565b610e95565b005b3480156105aa57600080fd5b506105c560048036038101906105c091906128bc565b610fb9565b005b3480156105d357600080fd5b506105ee60048036038101906105e99190612a31565b610fcf565b005b3480156105fc57600080fd5b5061061760048036038101906106129190612611565b611031565b60405161062491906125b9565b60405180910390f35b34801561063957600080fd5b506106426110d0565b60405161064f9190612715565b60405180910390f35b34801561066457600080fd5b5061067f600480360381019061067a9190612ab4565b6110d6565b60405161068c919061250e565b60405180910390f35b3480156106a157600080fd5b506106bc60048036038101906106b79190612783565b61116a565b005b60007f780e9d63000000000000000000000000000000000000000000000000000000007bffffffffffffffffffffffffffffffffffffffffffffffffffffffff1916827bffffffffffffffffffffffffffffffffffffffffffffffffffffffff191614806107315750610730826111ed565b5b9050919050565b60606000805461074790612b23565b80601f016020809104026020016040519081016040528092919081815260200182805461077390612b23565b80156107c05780601f10610795576101008083540402835291602001916107c0565b820191906000526020600020905b8154815290600101906020018083116107a357829003601f168201915b5050505050905090565b60006107d5826112cf565b6004600083815260200190815260200160002060009054906101000a900473ffffffffffffffffffffffffffffffffffffffff169050919050565b600061081b82610c4b565b90508073ffffffffffffffffffffffffffffffffffffffff168373ffffffffffffffffffffffffffffffffffffffff160361088b576040517f08c379a000000000000000000000000000000000000000000000000000000000815260040161088290612bc6565b60405180910390fd5b8073ffffffffffffffffffffffffffffffffffffffff166108aa61131a565b73ffffffffffffffffffffffffffffffffffffffff1614806108d957506108d8816108d361131a565b6110d6565b5b610918576040517f08c379a000000000000000000000000000000000000000000000000000000000815260040161090f90612c58565b60405180910390fd5b6109228383611322565b505050565b600b5481565b6000600880549050905090565b600d5481565b61095161094b61131a565b826113db565b610990576040517f08c379a000000000000000000000000000000000000000000000000000000000815260040161098790612cea565b60405180910390fd5b61099b838383611470565b505050565b60006109ab83610cfc565b82106109ec576040517f08c379a00000000000000000000000000000000000000000000000000000000081526004016109e390612d7c565b60405180910390fd5b600660008473ffffffffffffffffffffffffffffffffffffffff1673ffffffffffffffffffffffffffffffffffffffff168152602001908152602001600020600083815260200190815260200160002054905092915050565b610a4d6116d6565b6000610a57610dd9565b73ffffffffffffffffffffffffffffffffffffffff1647604051610a7a90612dcd565b60006040518083038185875af1925050503d8060008114610ab7576040519150601f19603f3d011682016040523d82523d6000602084013e610abc565b606091505b5050905080610aca57600080fd5b50565b6060610af5604051602001610ae190613698565b604051602081830303815290604052611754565b905090565b610b1583838360405180602001604052806000815250610fcf565b505050565b60606000610b2783610cfc565b905060008167ffffffffffffffff811115610b4557610b44612906565b5b604051908082528060200260200182016040528015610b735781602001602082028036833780820191505090505b50905060005b82811015610bbd57610b8b85826109a0565b828281518110610b9e57610b9d61373c565b5b6020026020010181815250508080610bb59061379a565b915050610b79565b508092505050919050565b610bd06116d6565b80600b8190555050565b6000610be461092d565b8210610c25576040517f08c379a0000000000000000000000000000000000000000000000000000000008152600401610c1c90613854565b60405180910390fd5b60088281548110610c3957610c3861373c565b5b90600052602060002001549050919050565b6000806002600084815260200190815260200160002060009054906101000a900473ffffffffffffffffffffffffffffffffffffffff169050600073ffffffffffffffffffffffffffffffffffffffff168173ffffffffffffffffffffffffffffffffffffffff1603610cf3576040517f08c379a0000000000000000000000000000000000000000000000000000000008152600401610cea906138c0565b60405180910390fd5b80915050919050565b60008073ffffffffffffffffffffffffffffffffffffffff168273ffffffffffffffffffffffffffffffffffffffff1603610d6c576040517f08c379a0000000000000000000000000000000000000000000000000000000008152600401610d6390613952565b60405180910390fd5b600360008373ffffffffffffffffffffffffffffffffffffffff1673ffffffffffffffffffffffffffffffffffffffff168152602001908152602001600020549050919050565b610dbb6116d6565b610dc560006118d8565b565b610dcf6116d6565b80600d8190555050565b6000600a60009054906101000a900473ffffffffffffffffffffffffffffffffffffffff16905090565b606060018054610e1290612b23565b80601f0160208091040260200160405190810160405280929190818152602001828054610e3e90612b23565b8015610e8b5780601f10610e6057610100808354040283529160200191610e8b565b820191906000526020600020905b815481529060010190602001808311610e6e57829003601f168201915b5050505050905090565b6000610e9f61092d565b90506000610eac33610cfc565b905060008311610ebb57600080fd5b600d54831115610eca57600080fd5b600c548383610ed99190613972565b1115610ee457600080fd5b6000811115610f28576040517f08c379a0000000000000000000000000000000000000000000000000000000008152600401610f1f906139f2565b60405180910390fd5b610f30610dd9565b73ffffffffffffffffffffffffffffffffffffffff163373ffffffffffffffffffffffffffffffffffffffff1614610f7d5782600b54610f709190613a12565b341015610f7c57600080fd5b5b6000600190505b838111610fb357610fa0338285610f9b9190613972565b61199e565b8080610fab9061379a565b915050610f84565b50505050565b610fcb610fc461131a565b83836119bc565b5050565b610fe0610fda61131a565b836113db565b61101f576040517f08c379a000000000000000000000000000000000000000000000000000000000815260040161101690612cea565b60405180910390fd5b61102b84848484611b28565b50505050565b606061103c82611b84565b61107b576040517f08c379a000000000000000000000000000000000000000000000000000000000815260040161107290613ade565b60405180910390fd5b6110aa611086610acd565b6040516020016110969190613c5f565b604051602081830303815290604052611754565b6040516020016110ba9190613ce3565b6040516020818303038152906040529050919050565b600c5481565b6000600560008473ffffffffffffffffffffffffffffffffffffffff1673ffffffffffffffffffffffffffffffffffffffff16815260200190815260200160002060008373ffffffffffffffffffffffffffffffffffffffff1673ffffffffffffffffffffffffffffffffffffffff16815260200190815260200160002060009054906101000a900460ff16905092915050565b6111726116d6565b600073ffffffffffffffffffffffffffffffffffffffff168173ffffffffffffffffffffffffffffffffffffffff16036111e1576040517f08c379a00000000000000000000000000000000000000000000000000000000081526004016111d890613d77565b60405180910390fd5b6111ea816118d8565b50565b60007f80ac58cd000000000000000000000000000000000000000000000000000000007bffffffffffffffffffffffffffffffffffffffffffffffffffffffff1916827bffffffffffffffffffffffffffffffffffffffffffffffffffffffff191614806112b857507f5b5e139f000000000000000000000000000000000000000000000000000000007bffffffffffffffffffffffffffffffffffffffffffffffffffffffff1916827bffffffffffffffffffffffffffffffffffffffffffffffffffffffff1916145b806112c857506112c782611bf0565b5b9050919050565b6112d881611b84565b611317576040517f08c379a000000000000000000000000000000000000000000000000000000000815260040161130e906138c0565b60405180910390fd5b50565b600033905090565b816004600083815260200190815260200160002060006101000a81548173ffffffffffffffffffffffffffffffffffffffff021916908373ffffffffffffffffffffffffffffffffffffffff160217905550808273ffffffffffffffffffffffffffffffffffffffff1661139583610c4b565b73ffffffffffffffffffffffffffffffffffffffff167f8c5be1e5ebec7d5bd14f71427d1e84f3dd0314c0f7b2291e5b200ac8c7c3b92560405160405180910390a45050565b6000806113e783610c4b565b90508073ffffffffffffffffffffffffffffffffffffffff168473ffffffffffffffffffffffffffffffffffffffff161480611429575061142881856110d6565b5b8061146757508373ffffffffffffffffffffffffffffffffffffffff1661144f846107ca565b73ffffffffffffffffffffffffffffffffffffffff16145b91505092915050565b8273ffffffffffffffffffffffffffffffffffffffff1661149082610c4b565b73ffffffffffffffffffffffffffffffffffffffff16146114e6576040517f08c379a00000000000000000000000000000000000000000000000000000000081526004016114dd90613e09565b60405180910390fd5b600073ffffffffffffffffffffffffffffffffffffffff168273ffffffffffffffffffffffffffffffffffffffff1603611555576040517f08c379a000000000000000000000000000000000000000000000000000000000815260040161154c90613e9b565b60405180910390fd5b611560838383611c5a565b61156b600082611322565b6001600360008573ffffffffffffffffffffffffffffffffffffffff1673ffffffffffffffffffffffffffffffffffffffff16815260200190815260200160002060008282546115bb9190613ebb565b925050819055506001600360008473ffffffffffffffffffffffffffffffffffffffff1673ffffffffffffffffffffffffffffffffffffffff16815260200190815260200160002060008282546116129190613972565b92505081905550816002600083815260200190815260200160002060006101000a81548173ffffffffffffffffffffffffffffffffffffffff021916908373ffffffffffffffffffffffffffffffffffffffff160217905550808273ffffffffffffffffffffffffffffffffffffffff168473ffffffffffffffffffffffffffffffffffffffff167fddf252ad1be2c89b69c2b068fc378daa952ba7f163c4a11628f55a4df523b3ef60405160405180910390a46116d1838383611d6c565b505050565b6116de61131a565b73ffffffffffffffffffffffffffffffffffffffff166116fc610dd9565b73ffffffffffffffffffffffffffffffffffffffff1614611752576040517f08c379a000000000000000000000000000000000000000000000000000000000815260040161174990613f3b565b60405180910390fd5b565b60606000825103611776576040518060200160405280600081525090506118d3565b60006040518060600160405280604081526020016142a460409139905060006003600285516117a59190613972565b6117af9190613f8a565b60046117bb9190613a12565b905060006020826117cc9190613972565b67ffffffffffffffff8111156117e5576117e4612906565b5b6040519080825280601f01601f1916602001820160405280156118175781602001600182028036833780820191505090505b509050818152600183018586518101602084015b81831015611892576003830192508251603f8160121c1685015160f81b8252600182019150603f81600c1c1685015160f81b8252600182019150603f8160061c1685015160f81b8252600182019150603f811685015160f81b82526001820191505061182b565b6003895106600181146118ac57600281146118bc576118c7565b613d3d60f01b60028303526118c7565b603d60f81b60018303525b50505050508093505050505b919050565b6000600a60009054906101000a900473ffffffffffffffffffffffffffffffffffffffff16905081600a60006101000a81548173ffffffffffffffffffffffffffffffffffffffff021916908373ffffffffffffffffffffffffffffffffffffffff1602179055508173ffffffffffffffffffffffffffffffffffffffff168173ffffffffffffffffffffffffffffffffffffffff167f8be0079c531659141344cd1fd0a4f28419497f9722a3daafe3b4186f6b6457e060405160405180910390a35050565b6119b8828260405180602001604052806000815250611d71565b5050565b8173ffffffffffffffffffffffffffffffffffffffff168373ffffffffffffffffffffffffffffffffffffffff1603611a2a576040517f08c379a0000000000000000000000000000000000000000000000000000000008152600401611a2190614007565b60405180910390fd5b80600560008573ffffffffffffffffffffffffffffffffffffffff1673ffffffffffffffffffffffffffffffffffffffff16815260200190815260200160002060008473ffffffffffffffffffffffffffffffffffffffff1673ffffffffffffffffffffffffffffffffffffffff16815260200190815260200160002060006101000a81548160ff0219169083151502179055508173ffffffffffffffffffffffffffffffffffffffff168373ffffffffffffffffffffffffffffffffffffffff167f17307eab39ab6107e8899845ad3d59bd9653f200f220920489ca2b5937696c3183604051611b1b919061250e565b60405180910390a3505050565b611b33848484611470565b611b3f84848484611dcc565b611b7e576040517f08c379a0000000000000000000000000000000000000000000000000000000008152600401611b7590614099565b60405180910390fd5b50505050565b60008073ffffffffffffffffffffffffffffffffffffffff166002600084815260200190815260200160002060009054906101000a900473ffffffffffffffffffffffffffffffffffffffff1673ffffffffffffffffffffffffffffffffffffffff1614159050919050565b60007f01ffc9a7000000000000000000000000000000000000000000000000000000007bffffffffffffffffffffffffffffffffffffffffffffffffffffffff1916827bffffffffffffffffffffffffffffffffffffffffffffffffffffffff1916149050919050565b611c65838383611f53565b600073ffffffffffffffffffffffffffffffffffffffff168373ffffffffffffffffffffffffffffffffffffffff1603611ca757611ca281611f58565b611ce6565b8173ffffffffffffffffffffffffffffffffffffffff168373ffffffffffffffffffffffffffffffffffffffff1614611ce557611ce48382611fa1565b5b5b600073ffffffffffffffffffffffffffffffffffffffff168273ffffffffffffffffffffffffffffffffffffffff1603611d2857611d238161210e565b611d67565b8273ffffffffffffffffffffffffffffffffffffffff168273ffffffffffffffffffffffffffffffffffffffff1614611d6657611d6582826121df565b5b5b505050565b505050565b611d7b838361225e565b611d886000848484611dcc565b611dc7576040517f08c379a0000000000000000000000000000000000000000000000000000000008152600401611dbe90614099565b60405180910390fd5b505050565b6000611ded8473ffffffffffffffffffffffffffffffffffffffff16612437565b15611f46578373ffffffffffffffffffffffffffffffffffffffff1663150b7a02611e1661131a565b8786866040518563ffffffff1660e01b8152600401611e38949392919061410e565b6020604051808303816000875af1925050508015611e7457506040513d601f19601f82011682018060405250810190611e71919061416f565b60015b611ef6573d8060008114611ea4576040519150601f19603f3d011682016040523d82523d6000602084013e611ea9565b606091505b506000815103611eee576040517f08c379a0000000000000000000000000000000000000000000000000000000008152600401611ee590614099565b60405180910390fd5b805181602001fd5b63150b7a0260e01b7bffffffffffffffffffffffffffffffffffffffffffffffffffffffff1916817bffffffffffffffffffffffffffffffffffffffffffffffffffffffff191614915050611f4b565b600190505b949350505050565b505050565b6008805490506009600083815260200190815260200160002081905550600881908060018154018082558091505060019003906000526020600020016000909190919091505550565b60006001611fae84610cfc565b611fb89190613ebb565b905060006007600084815260200190815260200160002054905081811461209d576000600660008673ffffffffffffffffffffffffffffffffffffffff1673ffffffffffffffffffffffffffffffffffffffff168152602001908152602001600020600084815260200190815260200160002054905080600660008773ffffffffffffffffffffffffffffffffffffffff1673ffffffffffffffffffffffffffffffffffffffff168152602001908152602001600020600084815260200190815260200160002081905550816007600083815260200190815260200160002081905550505b6007600084815260200190815260200160002060009055600660008573ffffffffffffffffffffffffffffffffffffffff1673ffffffffffffffffffffffffffffffffffffffff16815260200190815260200160002060008381526020019081526020016000206000905550505050565b600060016008805490506121229190613ebb565b90506000600960008481526020019081526020016000205490506000600883815481106121525761215161373c565b5b9060005260206000200154905080600883815481106121745761217361373c565b5b9060005260206000200181905550816009600083815260200190815260200160002081905550600960008581526020019081526020016000206000905560088054806121c3576121c261419c565b5b6001900381819060005260206000200160009055905550505050565b60006121ea83610cfc565b905081600660008573ffffffffffffffffffffffffffffffffffffffff1673ffffffffffffffffffffffffffffffffffffffff168152602001908152602001600020600083815260200190815260200160002081905550806007600084815260200190815260200160002081905550505050565b600073ffffffffffffffffffffffffffffffffffffffff168273ffffffffffffffffffffffffffffffffffffffff16036122cd576040517f08c379a00000000000000000000000000000000000000000000000000000000081526004016122c490614217565b60405180910390fd5b6122d681611b84565b15612316576040517f08c379a000000000000000000000000000000000000000000000000000000000815260040161230d90614283565b60405180910390fd5b61232260008383611c5a565b6001600360008473ffffffffffffffffffffffffffffffffffffffff1673ffffffffffffffffffffffffffffffffffffffff16815260200190815260200160002060008282546123729190613972565b92505081905550816002600083815260200190815260200160002060006101000a81548173ffffffffffffffffffffffffffffffffffffffff021916908373ffffffffffffffffffffffffffffffffffffffff160217905550808273ffffffffffffffffffffffffffffffffffffffff16600073ffffffffffffffffffffffffffffffffffffffff167fddf252ad1be2c89b69c2b068fc378daa952ba7f163c4a11628f55a4df523b3ef60405160405180910390a461243360008383611d6c565b5050565b6000808273ffffffffffffffffffffffffffffffffffffffff163b119050919050565b6000604051905090565b600080fd5b600080fd5b60007fffffffff0000000000000000000000000000000000000000000000000000000082169050919050565b6124a38161246e565b81146124ae57600080fd5b50565b6000813590506124c08161249a565b92915050565b6000602082840312156124dc576124db612464565b5b60006124ea848285016124b1565b91505092915050565b60008115159050919050565b612508816124f3565b82525050565b600060208201905061252360008301846124ff565b92915050565b600081519050919050565b600082825260208201905092915050565b60005b83811015612563578082015181840152602081019050612548565b60008484015250505050565b6000601f19601f8301169050919050565b600061258b82612529565b6125958185612534565b93506125a5818560208601612545565b6125ae8161256f565b840191505092915050565b600060208201905081810360008301526125d38184612580565b905092915050565b6000819050919050565b6125ee816125db565b81146125f957600080fd5b50565b60008135905061260b816125e5565b92915050565b60006020828403121561262757612626612464565b5b6000612635848285016125fc565b91505092915050565b600073ffffffffffffffffffffffffffffffffffffffff82169050919050565b60006126698261263e565b9050919050565b6126798161265e565b82525050565b60006020820190506126946000830184612670565b92915050565b6126a38161265e565b81146126ae57600080fd5b50565b6000813590506126c08161269a565b92915050565b600080604083850312156126dd576126dc612464565b5b60006126eb858286016126b1565b92505060206126fc858286016125fc565b9150509250929050565b61270f816125db565b82525050565b600060208201905061272a6000830184612706565b92915050565b60008060006060848603121561274957612748612464565b5b6000612757868287016126b1565b9350506020612768868287016126b1565b9250506040612779868287016125fc565b9150509250925092565b60006020828403121561279957612798612464565b5b60006127a7848285016126b1565b91505092915050565b600081519050919050565b600082825260208201905092915050565b6000819050602082019050919050565b6127e5816125db565b82525050565b60006127f783836127dc565b60208301905092915050565b6000602082019050919050565b600061281b826127b0565b61282581856127bb565b9350612830836127cc565b8060005b8381101561286157815161284888826127eb565b975061285383612803565b925050600181019050612834565b5085935050505092915050565b600060208201905081810360008301526128888184612810565b905092915050565b612899816124f3565b81146128a457600080fd5b50565b6000813590506128b681612890565b92915050565b600080604083850312156128d3576128d2612464565b5b60006128e1858286016126b1565b92505060206128f2858286016128a7565b9150509250929050565b600080fd5b600080fd5b7f4e487b7100000000000000000000000000000000000000000000000000000000600052604160045260246000fd5b61293e8261256f565b810181811067ffffffffffffffff8211171561295d5761295c612906565b5b80604052505050565b600061297061245a565b905061297c8282612935565b919050565b600067ffffffffffffffff82111561299c5761299b612906565b5b6129a58261256f565b9050602081019050919050565b82818337600083830152505050565b60006129d46129cf84612981565b612966565b9050828152602081018484840111156129f0576129ef612901565b5b6129fb8482856129b2565b509392505050565b600082601f830112612a1857612a176128fc565b5b8135612a288482602086016129c1565b91505092915050565b60008060008060808587031215612a4b57612a4a612464565b5b6000612a59878288016126b1565b9450506020612a6a878288016126b1565b9350506040612a7b878288016125fc565b925050606085013567ffffffffffffffff811115612a9c57612a9b612469565b5b612aa887828801612a03565b91505092959194509250565b60008060408385031215612acb57612aca612464565b5b6000612ad9858286016126b1565b9250506020612aea858286016126b1565b9150509250929050565b7f4e487b7100000000000000000000000000000000000000000000000000000000600052602260045260246000fd5b60006002820490506001821680612b3b57607f821691505b602082108103612b4e57612b4d612af4565b5b50919050565b7f4552433732313a20617070726f76616c20746f2063757272656e74206f776e6560008201527f7200000000000000000000000000000000000000000000000000000000000000602082015250565b6000612bb0602183612534565b9150612bbb82612b54565b604082019050919050565b60006020820190508181036000830152612bdf81612ba3565b9050919050565b7f4552433732313a20617070726f76652063616c6c6572206973206e6f7420746f60008201527f6b656e206f776e6572206e6f7220617070726f76656420666f7220616c6c0000602082015250565b6000612c42603e83612534565b9150612c4d82612be6565b604082019050919050565b60006020820190508181036000830152612c7181612c35565b9050919050565b7f4552433732313a2063616c6c6572206973206e6f7420746f6b656e206f776e6560008201527f72206e6f7220617070726f766564000000000000000000000000000000000000602082015250565b6000612cd4602e83612534565b9150612cdf82612c78565b604082019050919050565b60006020820190508181036000830152612d0381612cc7565b9050919050565b7f455243373231456e756d657261626c653a206f776e657220696e646578206f7560008201527f74206f6620626f756e6473000000000000000000000000000000000000000000602082015250565b6000612d66602b83612534565b9150612d7182612d0a565b604082019050919050565b60006020820190508181036000830152612d9581612d59565b9050919050565b600081905092915050565b50565b6000612db7600083612d9c565b9150612dc282612da7565b600082019050919050565b6000612dd882612daa565b9150819050919050565b600081905092915050565b7f3c73766720786d6c6e733d22687474703a2f2f7777772e77332e6f72672f323060008201527f30302f737667222076696577426f783d223020302039342e33203130322e342260208201527f3e00000000000000000000000000000000000000000000000000000000000000604082015250565b6000612e6f604183612de2565b9150612e7a82612ded565b604182019050919050565b7f3c74657874207472616e73666f726d3d227472616e736c61746528332038302960008201527f22207374796c653d22666f6e742d73697a653a393170783b66696c6c3a23323360208201527f313831353b666f6e742d66616d696c793a41425f6f6f746f72692d383370762d60408201527f524b534a2d482c41425f6f6f746f7269223e0000000000000000000000000000606082015250565b6000612f2d607283612de2565b9150612f3882612e85565b607282019050919050565b7fe7b5860000000000000000000000000000000000000000000000000000000000600082015250565b6000612f79600383612de2565b9150612f8482612f43565b600382019050919050565b7f3c2f746578743e00000000000000000000000000000000000000000000000000600082015250565b6000612fc5600783612de2565b9150612fd082612f8f565b600782019050919050565b7f3c746578742072616e73666f726d3d227472616e736c6174652833372039392960008201527f22207374796c653d22666f6e742d73697a653a313170783b66696c6c3a6e6f6e60208201527f653b7374726f6b653a236666663b666f6e742d66616d696c793a41422d64696760408201527f69636f6d622d383370762d524b534a2d482c41422d64696769636f6d62223e00606082015250565b6000613083607f83612de2565b915061308e82612fdb565b607f82019050919050565b7f576562334c616273000000000000000000000000000000000000000000000000600082015250565b60006130cf600883612de2565b91506130da82613099565b600882019050919050565b7f3c2f746578743e2c3c74657874207472616e73666f726d3d227472616e736c6160008201527f74652833372039392922207374796c653d22666f6e742d73697a653a3131707860208201527f3b66696c6c3a233233313831353b666f6e742d66616d696c793a41422d64696760408201527f69636f6d622d383370762d524b534a2d482c41422d64696769636f6d62223e00606082015250565b600061318d607f83612de2565b9150613198826130e5565b607f82019050919050565b7f576562334c616200000000000000000000000000000000000000000000000000600082015250565b60006131d9600783612de2565b91506131e4826131a3565b600782019050919050565b7f3c747370616e20783d2235302e342220793d223022207374796c653d2266696c60008201527f6c3a23633330643233223e000000000000000000000000000000000000000000602082015250565b600061324b602b83612de2565b9150613256826131ef565b602b82019050919050565b7f7300000000000000000000000000000000000000000000000000000000000000600082015250565b6000613297600183612de2565b91506132a282613261565b600182019050919050565b7f3c2f747370616e3e000000000000000000000000000000000000000000000000600082015250565b60006132e3600883612de2565b91506132ee826132ad565b600882019050919050565b7f3c7061746820643d224d3334203638682d39762d34682d34762d34682d34762d60008201527f346834763468347634683976345a6d34312d31682d38762d336838762d34683460208201527f762d3468347634682d347634682d345a4d323520333268387634682d3876346860408201527f2d347634682d34762d346834762d3468345a6d33332d34483432762d3468313660608201527f76345a4d34322037326831367633483432762d335a6d32332d3236683376386860808201527f2d337636682d337633682d337632682d33762d336833762d326833762d36683360a08201527f762d385a6d2d333120307638683376366834763268337633682d33762d32682d60c08201527f34762d33682d33762d36682d33762d3868335a4d3137203536682d34762d344860e08201527f39762d346833762d3468347634682d33763468345a6d34382d3130682d33762d6101008201527f36682d33762d32682d33762d336834763268327633683376365a6d2d333120306101208201527f762d366833762d336832762d3268357632682d337633682d347636682d335a6d6101408201527f392d3131762d3368313376335a6d312033306831327633483434762d335a6d336101608201527f302d32396835763468347634682d34762d34682d35762d345a6d2d382d34682d6101808201527f38762d336132203220302030203120302d31683876345a6d382034682d38762d6101a08201527f346134203420302030203020312030683776345a4d3432203732682d38762d346101c08201527f683876345a6d31362030762d3468387633682d37613320332030203020302d316101e08201527f20315a4d34322032397633682d39762d336838613320332030203020312031206102008201527f305a6d343120313568347634682d345a6d342038762d3468357634682d355a6d6102208201527f3020307634682d34762d3468345a22207472616e73666f726d3d227472616e736102408201527f6c617465282d3520312922207374796c653d2266696c6c3a23663339383030226102608201527f2f3e00000000000000000000000000000000000000000000000000000000000061028082015250565b600061363561028283612de2565b9150613640826132f9565b61028282019050919050565b7f3c2f7376673e0000000000000000000000000000000000000000000000000000600082015250565b6000613682600683612de2565b915061368d8261364c565b600682019050919050565b60006136a382612e62565b91506136ae82612f20565b91506136b982612f6c565b91506136c482612fb8565b91506136cf82613076565b91506136da826130c2565b91506136e582613180565b91506136f0826131cc565b91506136fb8261323e565b91506137068261328a565b9150613711826132d6565b915061371c82612fb8565b915061372782613627565b915061373282613675565b9150819050919050565b7f4e487b7100000000000000000000000000000000000000000000000000000000600052603260045260246000fd5b7f4e487b7100000000000000000000000000000000000000000000000000000000600052601160045260246000fd5b60006137a5826125db565b91507fffffffffffffffffffffffffffffffffffffffffffffffffffffffffffffffff82036137d7576137d661376b565b5b600182019050919050565b7f455243373231456e756d657261626c653a20676c6f62616c20696e646578206f60008201527f7574206f6620626f756e64730000000000000000000000000000000000000000602082015250565b600061383e602c83612534565b9150613849826137e2565b604082019050919050565b6000602082019050818103600083015261386d81613831565b9050919050565b7f4552433732313a20696e76616c696420746f6b656e2049440000000000000000600082015250565b60006138aa601883612534565b91506138b582613874565b602082019050919050565b600060208201905081810360008301526138d98161389d565b9050919050565b7f4552433732313a2061646472657373207a65726f206973206e6f74206120766160008201527f6c6964206f776e65720000000000000000000000000000000000000000000000602082015250565b600061393c602983612534565b9150613947826138e0565b604082019050919050565b6000602082019050818103600083015261396b8161392f565b9050919050565b600061397d826125db565b9150613988836125db565b92508282019050808211156139a05761399f61376b565b5b92915050565b7f416c7265616479206d696e7465642e0000000000000000000000000000000000600082015250565b60006139dc600f83612534565b91506139e7826139a6565b602082019050919050565b60006020820190508181036000830152613a0b816139cf565b9050919050565b6000613a1d826125db565b9150613a28836125db565b9250817fffffffffffffffffffffffffffffffffffffffffffffffffffffffffffffffff0483118215151615613a6157613a6061376b565b5b828202905092915050565b7f4552433732314d657461646174613a2055524920717565727920666f72206e6f60008201527f6e6578697374656e7420746f6b656e0000000000000000000000000000000000602082015250565b6000613ac8602f83612534565b9150613ad382613a6c565b604082019050919050565b60006020820190508181036000830152613af781613abb565b9050919050565b7f7b226e616d65223a2022576562334c61627320466f756e646572506173730000600082015250565b6000613b34601e83612de2565b9150613b3f82613afe565b601e82019050919050565b7f222c20226465736372697074696f6e223a202254657374206f6e2d636861696e60008201527f20766f74696e67207469636b6574222c2022696d616765223a2022646174613a60208201527f696d6167652f7376672b786d6c3b6261736536342c0000000000000000000000604082015250565b6000613bcc605583612de2565b9150613bd782613b4a565b605582019050919050565b6000613bed82612529565b613bf78185612de2565b9350613c07818560208601612545565b80840191505092915050565b7f227d000000000000000000000000000000000000000000000000000000000000600082015250565b6000613c49600283612de2565b9150613c5482613c13565b600282019050919050565b6000613c6a82613b27565b9150613c7582613bbf565b9150613c818284613be2565b9150613c8c82613c3c565b915081905092915050565b7f646174613a6170706c69636174696f6e2f6a736f6e3b6261736536342c000000600082015250565b6000613ccd601d83612de2565b9150613cd882613c97565b601d82019050919050565b6000613cee82613cc0565b9150613cfa8284613be2565b915081905092915050565b7f4f776e61626c653a206e6577206f776e657220697320746865207a65726f206160008201527f6464726573730000000000000000000000000000000000000000000000000000602082015250565b6000613d61602683612534565b9150613d6c82613d05565b604082019050919050565b60006020820190508181036000830152613d9081613d54565b9050919050565b7f4552433732313a207472616e736665722066726f6d20696e636f72726563742060008201527f6f776e6572000000000000000000000000000000000000000000000000000000602082015250565b6000613df3602583612534565b9150613dfe82613d97565b604082019050919050565b60006020820190508181036000830152613e2281613de6565b9050919050565b7f4552433732313a207472616e7366657220746f20746865207a65726f2061646460008201527f7265737300000000000000000000000000000000000000000000000000000000602082015250565b6000613e85602483612534565b9150613e9082613e29565b604082019050919050565b60006020820190508181036000830152613eb481613e78565b9050919050565b6000613ec6826125db565b9150613ed1836125db565b9250828203905081811115613ee957613ee861376b565b5b92915050565b7f4f776e61626c653a2063616c6c6572206973206e6f7420746865206f776e6572600082015250565b6000613f25602083612534565b9150613f3082613eef565b602082019050919050565b60006020820190508181036000830152613f5481613f18565b9050919050565b7f4e487b7100000000000000000000000000000000000000000000000000000000600052601260045260246000fd5b6000613f95826125db565b9150613fa0836125db565b925082613fb057613faf613f5b565b5b828204905092915050565b7f4552433732313a20617070726f766520746f2063616c6c657200000000000000600082015250565b6000613ff1601983612534565b9150613ffc82613fbb565b602082019050919050565b6000602082019050818103600083015261402081613fe4565b9050919050565b7f4552433732313a207472616e7366657220746f206e6f6e20455243373231526560008201527f63656976657220696d706c656d656e7465720000000000000000000000000000602082015250565b6000614083603283612534565b915061408e82614027565b604082019050919050565b600060208201905081810360008301526140b281614076565b9050919050565b600081519050919050565b600082825260208201905092915050565b60006140e0826140b9565b6140ea81856140c4565b93506140fa818560208601612545565b6141038161256f565b840191505092915050565b60006080820190506141236000830187612670565b6141306020830186612670565b61413d6040830185612706565b818103606083015261414f81846140d5565b905095945050505050565b6000815190506141698161249a565b92915050565b60006020828403121561418557614184612464565b5b60006141938482850161415a565b91505092915050565b7f4e487b7100000000000000000000000000000000000000000000000000000000600052603160045260246000fd5b7f4552433732313a206d696e7420746f20746865207a65726f2061646472657373600082015250565b6000614201602083612534565b915061420c826141cb565b602082019050919050565b60006020820190508181036000830152614230816141f4565b9050919050565b7f4552433732313a20746f6b656e20616c7265616479206d696e74656400000000600082015250565b600061426d601c83612534565b915061427882614237565b602082019050919050565b6000602082019050818103600083015261429c81614260565b905091905056fe4142434445464748494a4b4c4d4e4f505152535455565758595a6162636465666768696a6b6c6d6e6f707172737475767778797a303132333435363738392b2fa2646970667358221220bba47a2eb8d95477038d034e6646a7838ef9b4db58fa98c97a8a235dfd225c5864736f6c63430008100033",
  "linkReferences": {},
  "deployedLinkReferences": {}
}